{"abi":[{"type":"constructor","inputs":[{"name":"_cUSD","type":"address","internalType":"address"}],"stateMutability":"nonpayable"},{"type":"function","name":"cUSD","inputs":[],"outputs":[{"name":"","type":"address","internalType":"address"}],"stateMutability":"view"},{"type":"function","name":"celoTips","inputs":[{"name":"","type":"string","internalType":"string"}],"outputs":[{"name":"","type":"uint256","internalType":"uint256"}],"stateMutability":"view"},{"type":"function","name":"cusdTips","inputs":[{"name":"","type":"string","internalType":"string"},{"name":"","type":"address","internalType":"address"}],"outputs":[{"name":"","type":"uint256","internalType":"uint256"}],"stateMutability":"view"},{"type":"function","name":"owner","inputs":[],"outputs":[{"name":"","type":"address","internalType":"address"}],"stateMutability":"view"},{"type":"function","name":"tipInCUSD","inputs":[{"name":"slug","type":"string","internalType":"string"},{"name":"amount","type":"uint256","internalType":"uint256"}],"outputs":[],"stateMutability":"nonpayable"},{"type":"function","name":"tipInCelo","inputs":[{"name":"slug","type":"string","internalType":"string"}],"outputs":[],"stateMutability":"payable"},{"type":"function","name":"withdrawCUSD","inputs":[{"name":"amount","type":"uint256","internalType":"uint256"}],"outputs":[],"stateMutability":"nonpayable"},{"type":"function","name":"withdrawCelo","inputs":[],"outputs":[],"stateMutability":"nonpayable"},{"type":"event","name":"TippedInCUSD","inputs":[{"name":"slug","type":"string","indexed":true,"internalType":"string"},{"name":"tipper","type":"address","indexed":true,"internalType":"address"},{"name":"amount","type":"uint256","indexed":false,"internalType":"uint256"}],"anonymous":false},{"type":"event","name":"TippedInCelo","inputs":[{"name":"slug","type":"string","indexed":true,"internalType":"string"},{"name":"tipper","type":"address","indexed":true,"internalType":"address"},{"name":"amount","type":"uint256","indexed":false,"internalType":"uint256"}],"anonymous":false}],"bytecode":{"object":"0x60806040523480156200001157600080fd5b50604051620010b2380380620010b2833981810160405281019062000037919062000129565b336000806101000a81548173ffffffffffffffffffffffffffffffffffffffff021916908373ffffffffffffffffffffffffffffffffffffffff16021790555080600360006101000a81548173ffffffffffffffffffffffffffffffffffffffff021916908373ffffffffffffffffffffffffffffffffffffffff160217905550506200015b565b600080fd5b600073ffffffffffffffffffffffffffffffffffffffff82169050919050565b6000620000f182620000c4565b9050919050565b6200010381620000e4565b81146200010f57600080fd5b50565b6000815190506200012381620000f8565b92915050565b600060208284031215620001425762000141620000bf565b5b6000620001528482850162000112565b91505092915050565b610f47806200016b6000396000f3fe60806040526004361061007b5760003560e01c80637d00d09e1161004e5780637d00d09e146101075780638da5cb5b14610144578063c241f21e1461016f578063d88b80b7146101985761007b565b80630968ebfb146100805780631fccf6721461009c5780634d96fc67146100c75780636ee97910146100f0575b600080fd5b61009a60048036038101906100959190610837565b6101d5565b005b3480156100a857600080fd5b506100b16102b9565b6040516100be91906108c5565b60405180910390f35b3480156100d357600080fd5b506100ee60048036038101906100e99190610916565b6102df565b005b3480156100fc57600080fd5b50610105610431565b005b34801561011357600080fd5b5061012e60048036038101906101299190610ab0565b610528565b60405161013b9190610b1b565b60405180910390f35b34801561015057600080fd5b50610159610563565b60405161016691906108c5565b60405180910390f35b34801561017b57600080fd5b5061019660048036038101906101919190610b36565b610587565b005b3480156101a457600080fd5b506101bf60048036038101906101ba9190610b96565b610790565b6040516101cc9190610b1b565b60405180910390f35b60003411610218576040517f08c379a000000000000000000000000000000000000000000000000000000000815260040161020f90610c3c565b60405180910390fd5b346001838360405161022b929190610c8c565b908152602001604051809103902060008282546102489190610cd4565b925050819055503373ffffffffffffffffffffffffffffffffffffffff168282604051610276929190610c8c565b60405180910390207fc62f1f22bb70bf0700a1ca2a1d09cb7f8f64dc14b6b65bbef62d7725c3944b32346040516102ad9190610b1b565b60405180910390a35050565b600360009054906101000a900473ffffffffffffffffffffffffffffffffffffffff1681565b60008054906101000a900473ffffffffffffffffffffffffffffffffffffffff1673ffffffffffffffffffffffffffffffffffffffff163373ffffffffffffffffffffffffffffffffffffffff161461036d576040517f08c379a000000000000000000000000000000000000000000000000000000000815260040161036490610d54565b60405180910390fd5b600360009054906101000a900473ffffffffffffffffffffffffffffffffffffffff1673ffffffffffffffffffffffffffffffffffffffff1663a9059cbb60008054906101000a900473ffffffffffffffffffffffffffffffffffffffff16836040518363ffffffff1660e01b81526004016103ea929190610d74565b6020604051808303816000875af1158015610409573d6000803e3d6000fd5b505050506040513d601f19601f8201168201806040525081019061042d9190610dd5565b5050565b60008054906101000a900473ffffffffffffffffffffffffffffffffffffffff1673ffffffffffffffffffffffffffffffffffffffff163373ffffffffffffffffffffffffffffffffffffffff16146104bf576040517f08c379a00000000000000000000000000000000000000000000000000000000081526004016104b690610d54565b60405180910390fd5b60008054906101000a900473ffffffffffffffffffffffffffffffffffffffff1673ffffffffffffffffffffffffffffffffffffffff166108fc479081150290604051600060405180830381858888f19350505050158015610525573d6000803e3d6000fd5b50565b600282805160208101820180518482526020830160208501208183528095505050505050602052806000526040600020600091509150505481565b60008054906101000a900473ffffffffffffffffffffffffffffffffffffffff1681565b600081116105ca576040517f08c379a00000000000000000000000000000000000000000000000000000000081526004016105c190610e4e565b60405180910390fd5b6000600360009054906101000a900473ffffffffffffffffffffffffffffffffffffffff1673ffffffffffffffffffffffffffffffffffffffff166323b872dd3330856040518463ffffffff1660e01b815260040161062b93929190610e6e565b6020604051808303816000875af115801561064a573d6000803e3d6000fd5b505050506040513d601f19601f8201168201806040525081019061066e9190610dd5565b9050806106b0576040517f08c379a00000000000000000000000000000000000000000000000000000000081526004016106a790610ef1565b60405180910390fd5b81600285856040516106c3929190610c8c565b908152602001604051809103902060003373ffffffffffffffffffffffffffffffffffffffff1673ffffffffffffffffffffffffffffffffffffffff168152602001908152602001600020600082825461071d9190610cd4565b925050819055503373ffffffffffffffffffffffffffffffffffffffff16848460405161074b929190610c8c565b60405180910390207f1dd20ba37b816545fd8f21e71e05178eadb49739b167e3bd4c8d5857afd4fe99846040516107829190610b1b565b60405180910390a350505050565b6001818051602081018201805184825260208301602085012081835280955050505050506000915090505481565b6000604051905090565b600080fd5b600080fd5b600080fd5b600080fd5b600080fd5b60008083601f8401126107f7576107f66107d2565b5b8235905067ffffffffffffffff811115610814576108136107d7565b5b6020830191508360018202830111156108305761082f6107dc565b5b9250929050565b6000806020838503121561084e5761084d6107c8565b5b600083013567ffffffffffffffff81111561086c5761086b6107cd565b5b610878858286016107e1565b92509250509250929050565b600073ffffffffffffffffffffffffffffffffffffffff82169050919050565b60006108af82610884565b9050919050565b6108bf816108a4565b82525050565b60006020820190506108da60008301846108b6565b92915050565b6000819050919050565b6108f3816108e0565b81146108fe57600080fd5b50565b600081359050610910816108ea565b92915050565b60006020828403121561092c5761092b6107c8565b5b600061093a84828501610901565b91505092915050565b600080fd5b6000601f19601f8301169050919050565b7f4e487b7100000000000000000000000000000000000000000000000000000000600052604160045260246000fd5b61099182610948565b810181811067ffffffffffffffff821117156109b0576109af610959565b5b80604052505050565b60006109c36107be565b90506109cf8282610988565b919050565b600067ffffffffffffffff8211156109ef576109ee610959565b5b6109f882610948565b9050602081019050919050565b82818337600083830152505050565b6000610a27610a22846109d4565b6109b9565b905082815260208101848484011115610a4357610a42610943565b5b610a4e848285610a05565b509392505050565b600082601f830112610a6b57610a6a6107d2565b5b8135610a7b848260208601610a14565b91505092915050565b610a8d816108a4565b8114610a9857600080fd5b50565b600081359050610aaa81610a84565b92915050565b60008060408385031215610ac757610ac66107c8565b5b600083013567ffffffffffffffff811115610ae557610ae46107cd565b5b610af185828601610a56565b9250506020610b0285828601610a9b565b9150509250929050565b610b15816108e0565b82525050565b6000602082019050610b306000830184610b0c565b92915050565b600080600060408486031215610b4f57610b4e6107c8565b5b600084013567ffffffffffffffff811115610b6d57610b6c6107cd565b5b610b79868287016107e1565b93509350506020610b8c86828701610901565b9150509250925092565b600060208284031215610bac57610bab6107c8565b5b600082013567ffffffffffffffff811115610bca57610bc96107cd565b5b610bd684828501610a56565b91505092915050565b600082825260208201905092915050565b7f4e6f2043454c4f2073656e740000000000000000000000000000000000000000600082015250565b6000610c26600c83610bdf565b9150610c3182610bf0565b602082019050919050565b60006020820190508181036000830152610c5581610c19565b9050919050565b600081905092915050565b6000610c738385610c5c565b9350610c80838584610a05565b82840190509392505050565b6000610c99828486610c67565b91508190509392505050565b7f4e487b7100000000000000000000000000000000000000000000000000000000600052601160045260246000fd5b6000610cdf826108e0565b9150610cea836108e0565b9250828201905080821115610d0257610d01610ca5565b5b92915050565b7f4e6f74206f776e65720000000000000000000000000000000000000000000000600082015250565b6000610d3e600983610bdf565b9150610d4982610d08565b602082019050919050565b60006020820190508181036000830152610d6d81610d31565b9050919050565b6000604082019050610d8960008301856108b6565b610d966020830184610b0c565b9392505050565b60008115159050919050565b610db281610d9d565b8114610dbd57600080fd5b50565b600081519050610dcf81610da9565b92915050565b600060208284031215610deb57610dea6107c8565b5b6000610df984828501610dc0565b91505092915050565b7f4e6f206355534420616d6f756e74000000000000000000000000000000000000600082015250565b6000610e38600e83610bdf565b9150610e4382610e02565b602082019050919050565b60006020820190508181036000830152610e6781610e2b565b9050919050565b6000606082019050610e8360008301866108b6565b610e9060208301856108b6565b610e9d6040830184610b0c565b949350505050565b7f63555344207472616e73666572206661696c6564000000000000000000000000600082015250565b6000610edb601483610bdf565b9150610ee682610ea5565b602082019050919050565b60006020820190508181036000830152610f0a81610ece565b905091905056fea2646970667358221220ba6f33157d823e72d52ffb3400d09798228e28981ff84e572c3b9b619663c2e964736f6c63430008130033","linkReferences":{}},"methodIdentifiers":{"cUSD()":"1fccf672","celoTips(string)":"d88b80b7","cusdTips(string,address)":"7d00d09e","owner()":"8da5cb5b","tipInCUSD(string,uint256)":"c241f21e","tipInCelo(string)":"0968ebfb","withdrawCUSD(uint256)":"4d96fc67","withdrawCelo()":"6ee97910"},"id":17}